{"abi":[{"type":"constructor","inputs":[],"stateMutability":"nonpayable"},{"type":"function","name":"MAX_FEE","inputs":[],"outputs":[{"name":"","type":"uint256","internalType":"uint256"}],"stateMutability":"view"},{"type":"function","name":"MAX_NAME_LENGTH","inputs":[],"outputs":[{"name":"","type":"uint256","internalType":"uint256"}],"stateMutability":"view"},{"type":"function","name":"MIN_NAME_LENGTH","inputs":[],"outputs":[{"name":"","type":"uint256","internalType":"uint256"}],"stateMutability":"view"},{"type":"function","name":"addAuthorizedCaller","inputs":[{"name":"caller","type":"address","internalType":"address"}],"outputs":[],"stateMutability":"nonpayable"},{"type":"function","name":"admin","inputs":[],"outputs":[{"name":"","type":"address","internalType":"address"}],"stateMutability":"view"},{"type":"function","name":"authorizedCallers","inputs":[{"name":"","type":"address","internalType":"address"}],"outputs":[{"name":"","type":"bool","internalType":"bool"}],"stateMutability":"view"},{"type":"function","name":"getAgentAtIndex","inputs":[{"name":"index","type":"uint256","internalType":"uint256"}],"outputs":[{"name":"","type":"tuple","internalType":"struct IAgentRegistry.RegisteredAgent","components":[{"name":"name","type":"string","internalType":"string"},{"name":"agentId","type":"string","internalType":"string"},{"name":"owner","type":"address","internalType":"address"},{"name":"performanceFee","type":"uint256","internalType":"uint256"},{"name":"totalYieldGenerated","type":"uint256","internalType":"uint256"},{"name":"totalFeesEarned","type":"uint256","internalType":"uint256"},{"name":"usageCount","type":"uint256","internalType":"uint256"},{"name":"active","type":"bool","internalType":"bool"},{"name":"registeredAt","type":"uint256","internalType":"uint256"}]}],"stateMutability":"view"},{"type":"function","name":"getAgentsByOwner","inputs":[{"name":"owner","type":"address","internalType":"address"}],"outputs":[{"name":"","type":"string[]","internalType":"string[]"}],"stateMutability":"view"},{"type":"function","name":"isNameAvailable","inputs":[{"name":"name","type":"string","internalType":"string"}],"outputs":[{"name":"","type":"bool","internalType":"bool"}],"stateMutability":"view"},{"type":"function","name":"recordYield","inputs":[{"name":"name","type":"string","internalType":"string"},{"name":"yieldAmount","type":"uint256","internalType":"uint256"}],"outputs":[],"stateMutability":"nonpayable"},{"type":"function","name":"registerAgent","inputs":[{"name":"name","type":"string","internalType":"string"},{"name":"agentId","type":"string","internalType":"string"},{"name":"performanceFee","type":"uint256","internalType":"uint256"}],"outputs":[],"stateMutability":"nonpayable"},{"type":"function","name":"removeAuthorizedCaller","inputs":[{"name":"caller","type":"address","internalType":"address"}],"outputs":[],"stateMutability":"nonpayable"},{"type":"function","name":"resolveAgent","inputs":[{"name":"name","type":"string","internalType":"string"}],"outputs":[{"name":"","type":"tuple","internalType":"struct IAgentRegistry.RegisteredAgent","components":[{"name":"name","type":"string","internalType":"string"},{"name":"agentId","type":"string","internalType":"string"},{"name":"owner","type":"address","internalType":"address"},{"name":"performanceFee","type":"uint256","internalType":"uint256"},{"name":"totalYieldGenerated","type":"uint256","internalType":"uint256"},{"name":"totalFeesEarned","type":"uint256","internalType":"uint256"},{"name":"usageCount","type":"uint256","internalType":"uint256"},{"name":"active","type":"bool","internalType":"bool"},{"name":"registeredAt","type":"uint256","internalType":"uint256"}]}],"stateMutability":"view"},{"type":"function","name":"setAgentActive","inputs":[{"name":"name","type":"string","internalType":"string"},{"name":"active","type":"bool","internalType":"bool"}],"outputs":[],"stateMutability":"nonpayable"},{"type":"function","name":"totalAgents","inputs":[],"outputs":[{"name":"","type":"uint256","internalType":"uint256"}],"stateMutability":"view"},{"type":"function","name":"transferAdmin","inputs":[{"name":"newAdmin","type":"address","internalType":"address"}],"outputs":[],"stateMutability":"nonpayable"},{"type":"function","name":"transferAgentOwnership","inputs":[{"name":"name","type":"string","internalType":"string"},{"name":"newOwner","type":"address","internalType":"address"}],"outputs":[],"stateMutability":"nonpayable"},{"type":"function","name":"updateFee","inputs":[{"name":"name","type":"string","internalType":"string"},{"name":"newFee","type":"uint256","internalType":"uint256"}],"outputs":[],"stateMutability":"nonpayable"},{"type":"function","name":"validAgentIds","inputs":[{"name":"","type":"string","internalType":"string"}],"outputs":[{"name":"","type":"bool","internalType":"bool"}],"stateMutability":"view"},{"type":"event","name":"AgentRegistered","inputs":[{"name":"nameHash","type":"string","indexed":true,"internalType":"string"},{"name":"name","type":"string","indexed":false,"internalType":"string"},{"name":"agentId","type":"string","indexed":false,"internalType":"string"},{"name":"owner","type":"address","indexed":true,"internalType":"address"},{"name":"performanceFee","type":"uint256","indexed":false,"internalType":"uint256"}],"anonymous":false},{"type":"event","name":"AgentUpdated","inputs":[{"name":"nameHash","type":"string","indexed":true,"internalType":"string"},{"name":"name","type":"string","indexed":false,"internalType":"string"},{"name":"newFee","type":"uint256","indexed":false,"internalType":"uint256"}],"anonymous":false},{"type":"event","name":"OwnershipTransferred","inputs":[{"name":"nameHash","type":"string","indexed":true,"internalType":"string"},{"name":"name","type":"string","indexed":false,"internalType":"string"},{"name":"previousOwner","type":"address","indexed":true,"internalType":"address"},{"name":"newOwner","type":"address","indexed":true,"internalType":"address"}],"anonymous":false},{"type":"event","name":"YieldRecorded","inputs":[{"name":"nameHash","type":"string","indexed":true,"internalType":"string"},{"name":"name","type":"string","indexed":false,"internalType":"string"},{"name":"yieldAmount","type":"uint256","indexed":false,"internalType":"uint256"},{"name":"feeAmount","type":"uint256","indexed":false,"internalType":"uint256"}],"anonymous":false}],"bytecode":{"object":"0x608060405234801561000f575f80fd5b50600580546001600160a01b031916331790556040516001905f9061003c9061061360f41b815260020190565b90815260408051918290036020018220805493151560ff1994851617905561613160f01b82525f60028084018290528251938490036022908101852080548716600190811790915561309960f11b865285830184905284519586900382018620805488168217905561613360f01b865285830184905284519586900382018620805488168217905561184d60f21b865285830184905284519586900382018620805488168217905561613560f01b865285830184905284519586900382018620805488168217905561309b60f11b8652918501839052925193849003909201909220805490931617909155611cfb90819061013690395ff3fe608060405234801561000f575f80fd5b506004361061011c575f3560e01c806386074985116100a9578063bc063e1a1161006e578063bc063e1a14610280578063c505371214610289578063da6b03bc14610291578063f851a440146102a4578063fad338ae146102cf575f80fd5b806386074985146102125780638cf44d211461021a578063980c845f1461022d578063a0aa0e8d14610240578063b7aa02311461026d575f80fd5b806347edb673116100ef57806347edb6731461019157806350cfeddd146101a4578063536fff6c146101ba57806375829def146101ec5780637bcac9a5146101ff575f80fd5b806313a155ea146101205780631ab6f8881461013557806339299d991461015e578063458cdaee1461017e575b5f80fd5b61013361012e366004611592565b6102e2565b005b610148610143366004611592565b610338565b60405161015591906115f5565b60405180910390f35b61017161016c36600461169a565b6104e2565b60405161015591906116d9565b61013361018c366004611780565b6106ec565b61013361019f3660046117c8565b61080f565b6101ac600381565b604051908152602001610155565b6101dc6101c8366004611592565b60046020525f908152604090205460ff1681565b6040519015158152602001610155565b6101336101fa366004611592565b6108a9565b61017161020d36600461181f565b61093b565b6101ac602081565b6101dc61022836600461169a565b610b3c565b61013361023b366004611780565b610ba9565b6101dc61024e36600461184a565b80516020818301810180515f8252928201919093012091525460ff1681565b61013361027b366004611592565b610d50565b6101ac6107d081565b6003546101ac565b61013361029f3660046118f5565b610d9a565b6005546102b7906001600160a01b031681565b6040516001600160a01b039091168152602001610155565b6101336102dd366004611963565b6111ad565b6005546001600160a01b031633146103155760405162461bcd60e51b815260040161030c906119b3565b60405180910390fd5b6001600160a01b03165f908152600460205260409020805460ff19166001179055565b6001600160a01b0381165f90815260026020908152604080832080548251818502810185019093528083526060949383018282801561039457602002820191905f5260205f20905b815481526020019060010190808311610380575b505050505090505f815167ffffffffffffffff8111156103b6576103b6611836565b6040519080825280602002602001820160405280156103e957816020015b60608152602001906001900390816103d45790505b5090505f5b82518110156104da5760015f84838151811061040c5761040c6119d6565b602002602001015181526020019081526020015f205f01805461042e906119ea565b80601f016020809104026020016040519081016040528092919081815260200182805461045a906119ea565b80156104a55780601f1061047c576101008083540402835291602001916104a5565b820191905f5260205f20905b81548152906001019060200180831161048857829003601f168201915b50505050508282815181106104bc576104bc6119d6565b602002602001018190525080806104d290611a36565b9150506103ee565b509392505050565b6104ea611527565b5f83836040516104fb929190611a4e565b604080519182900382205f8181526001602052828120610120850190935282549194509291908290829061052e906119ea565b80601f016020809104026020016040519081016040528092919081815260200182805461055a906119ea565b80156105a55780601f1061057c576101008083540402835291602001916105a5565b820191905f5260205f20905b81548152906001019060200180831161058857829003601f168201915b505050505081526020016001820180546105be906119ea565b80601f01602080910402602001604051908101604052809291908181526020018280546105ea906119ea565b80156106355780601f1061060c57610100808354040283529160200191610635565b820191905f5260205f20905b81548152906001019060200180831161061857829003601f168201915b505050918352505060028201546001600160a01b03908116602083015260038301546040808401919091526004840154606084015260058401546080840152600684015460a0840152600784015460ff16151560c084015260089093015460e09092019190915290820151919250166106e25760405162461bcd60e51b815260206004820152600f60248201526e1059d95b9d081b9bdd08199bdd5b99608a1b604482015260640161030c565b9150505b92915050565b82825f82826040516106ff929190611a4e565b60408051918290039091205f818152600160205291909120600201549091506001600160a01b031633146107455760405162461bcd60e51b815260040161030c90611a5d565b6107d08411156107865760405162461bcd60e51b815260206004820152600c60248201526b08ccaca40e8dede40d0d2ced60a31b604482015260640161030c565b5f8686604051610797929190611a4e565b604080519182900382205f81815260016020529190912060030187905591506107c39088908890611a4e565b60405180910390207f4e63b2dd87402ec76d720ba82ef633d1678f8b671f0de1af571b3770b747f77a8888886040516107fe93929190611aae565b60405180910390a250505050505050565b82825f8282604051610822929190611a4e565b60408051918290039091205f818152600160205291909120600201549091506001600160a01b031633146108685760405162461bcd60e51b815260040161030c90611a5d565b5f8686604051610879929190611a4e565b60408051918290039091205f908152600160205220600701805460ff191695151595909517909455505050505050565b6005546001600160a01b031633146108d35760405162461bcd60e51b815260040161030c906119b3565b6001600160a01b0381166109195760405162461bcd60e51b815260206004820152600d60248201526c24b73b30b634b21030b236b4b760991b604482015260640161030c565b600580546001600160a01b0319166001600160a01b0392909216919091179055565b610943611527565b600354821061098a5760405162461bcd60e51b8152602060048201526013602482015272496e646578206f7574206f6620626f756e647360681b604482015260640161030c565b60015f600384815481106109a0576109a06119d6565b905f5260205f20015481526020019081526020015f20604051806101200160405290815f820180546109d1906119ea565b80601f01602080910402602001604051908101604052809291908181526020018280546109fd906119ea565b8015610a485780601f10610a1f57610100808354040283529160200191610a48565b820191905f5260205f20905b815481529060010190602001808311610a2b57829003601f168201915b50505050508152602001600182018054610a61906119ea565b80601f0160208091040260200160405190810160405280929190818152602001828054610a8d906119ea565b8015610ad85780601f10610aaf57610100808354040283529160200191610ad8565b820191905f5260205f20905b815481529060010190602001808311610abb57829003601f168201915b505050918352505060028201546001600160a01b03166020820152600382015460408201526004820154606082015260058201546080820152600682015460a0820152600782015460ff16151560c082015260089091015460e09091015292915050565b5f6003821080610b4c5750602082115b15610b5857505f6106e6565b610b628383611332565b610b6d57505f6106e6565b5f8383604051610b7e929190611a4e565b60408051918290039091205f908152600160205220600201546001600160a01b031615949350505050565b335f9081526004602052604090205460ff1680610bd057506005546001600160a01b031633145b610c0d5760405162461bcd60e51b815260206004820152600e60248201526d139bdd08185d5d1a1bdc9a5e995960921b604482015260640161030c565b5f8383604051610c1e929190611a4e565b60408051918290039091205f8181526001602052919091206002810154919250906001600160a01b0316610c865760405162461bcd60e51b815260206004820152600f60248201526e1059d95b9d081b9bdd08199bdd5b99608a1b604482015260640161030c565b5f612710826003015485610c9a9190611ad1565b610ca49190611ae8565b905083826004015f828254610cb99190611b07565b9250508190555080826005015f828254610cd39190611b07565b925050819055506001826006015f828254610cee9190611b07565b9091555050604051610d039087908790611a4e565b60405180910390207f47489703e51ec94bd0739c090152e6d65e107018669f0618982025aff326339887878785604051610d409493929190611b1a565b60405180910390a2505050505050565b6005546001600160a01b03163314610d7a5760405162461bcd60e51b815260040161030c906119b3565b6001600160a01b03165f908152600460205260409020805460ff19169055565b6003841015610ddc5760405162461bcd60e51b815260206004820152600e60248201526d13985b59481d1bdbc81cda1bdc9d60921b604482015260640161030c565b6020841115610e1d5760405162461bcd60e51b815260206004820152600d60248201526c4e616d6520746f6f206c6f6e6760981b604482015260640161030c565b6107d0811115610e5e5760405162461bcd60e51b815260206004820152600c60248201526b08ccaca40e8dede40d0d2ced60a31b604482015260640161030c565b5f8383604051610e6f929190611a4e565b9081526040519081900360200190205460ff16610ec15760405162461bcd60e51b815260206004820152601060248201526f125b9d985b1a59081859d95b9d08125160821b604482015260640161030c565b610ecb8585611332565b610f175760405162461bcd60e51b815260206004820152601a60248201527f496e76616c6964206368617261637465727320696e206e616d65000000000000604482015260640161030c565b5f8585604051610f28929190611a4e565b60408051918290039091205f818152600160205291909120600201549091506001600160a01b031615610f9d5760405162461bcd60e51b815260206004820152601760248201527f4e616d6520616c72656164792072656769737465726564000000000000000000604482015260640161030c565b60405180610120016040528087878080601f0160208091040260200160405190810160405280939291908181526020018383808284375f92019190915250505090825250604080516020601f8801819004810282018101909252868152918101919087908790819084018382808284375f9201829052509385525050336020808501919091526040808501889052606085018490526080850184905260a08501849052600160c086018190524260e0909601959095528684529390525020815181906110699082611b8e565b506020820151600182019061107e9082611b8e565b50604082810151600283810180546001600160a01b0319166001600160a01b039093169290921790915560608401516003808501919091556080850151600485015560a0850151600585015560c0850151600685015560e085015160078501805460ff191691151591909117905561010090940151600890930192909255335f818152602093845282812080546001818101835591835294822090940186905584549384018555939093527fc2575a0e9e593c00f959f8c92f12db2869c3395a3b0502d05e2516446f71f85b9091018390555161115e9088908890611a4e565b60405180910390207f5405850596097d6d0dc3117635df179da7fbb2d8b329985df868660111047bb3888888888860405161119d959493929190611c4a565b60405180910390a3505050505050565b82825f82826040516111c0929190611a4e565b60408051918290039091205f818152600160205291909120600201549091506001600160a01b031633146112065760405162461bcd60e51b815260040161030c90611a5d565b6001600160a01b0384166112505760405162461bcd60e51b815260206004820152601160248201527024b73b30b634b2103732bb9037bbb732b960791b604482015260640161030c565b5f8686604051611261929190611a4e565b60408051918290039091205f81815260016020529190912060020180546001600160a01b038881166001600160a01b0319831617909255919250166112a6818361145d565b6001600160a01b038087165f818152600260209081526040808320805460018101825590845291909220018590555190918316906112e7908b908b90611a4e565b60405180910390207f9deb327f66107189e0947770cedee88b277ba8e85464d0d44df32569dfbd7eed8b8b604051611320929190611c83565b60405180910390a45050505050505050565b5f8083838080601f0160208091040260200160405190810160405280939291908181526020018383808284375f9201829052509394505050505b8151811015611452575f828281518110611388576113886119d6565b01602001516001600160f81b03191690505f606160f81b82108015906113bc5750603d60f91b6001600160f81b0319831611155b90505f600360fc1b6001600160f81b03198416108015906113eb5750603960f81b6001600160f81b0319841611155b90506001600160f81b03198316602d60f81b811490601760f91b1483158015611412575082155b801561141c575081155b8015611426575080155b1561143a575f9750505050505050506106e6565b5050505050808061144a90611a36565b91505061136c565b506001949350505050565b6001600160a01b0382165f908152600260205260408120905b81548110156115215782828281548110611492576114926119d6565b905f5260205f2001540361150f57815482906114b090600190611c9e565b815481106114c0576114c06119d6565b905f5260205f2001548282815481106114db576114db6119d6565b905f5260205f200181905550818054806114f7576114f7611cb1565b600190038181905f5260205f20015f90559055611521565b8061151981611a36565b915050611476565b50505050565b60405180610120016040528060608152602001606081526020015f6001600160a01b031681526020015f81526020015f81526020015f81526020015f81526020015f151581526020015f81525090565b80356001600160a01b038116811461158d575f80fd5b919050565b5f602082840312156115a2575f80fd5b6115ab82611577565b9392505050565b5f81518084525f5b818110156115d6576020818501810151868301820152016115ba565b505f602082860101526020601f19601f83011685010191505092915050565b5f602080830181845280855180835260408601915060408160051b87010192508387015f5b8281101561164857603f198886030184526116368583516115b2565b9450928501929085019060010161161a565b5092979650505050505050565b5f8083601f840112611665575f80fd5b50813567ffffffffffffffff81111561167c575f80fd5b602083019150836020828501011115611693575f80fd5b9250929050565b5f80602083850312156116ab575f80fd5b823567ffffffffffffffff8111156116c1575f80fd5b6116cd85828601611655565b90969095509350505050565b602081525f82516101208060208501526116f76101408501836115b2565b91506020850151601f1985840301604086015261171483826115b2565b925050604085015161173160608601826001600160a01b03169052565b5060608501516080850152608085015160a085015260a085015160c085015260c085015160e085015260e085015161010061176f8187018315159052565b959095015193019290925250919050565b5f805f60408486031215611792575f80fd5b833567ffffffffffffffff8111156117a8575f80fd5b6117b486828701611655565b909790965060209590950135949350505050565b5f805f604084860312156117da575f80fd5b833567ffffffffffffffff8111156117f0575f80fd5b6117fc86828701611655565b90945092505060208401358015158114611814575f80fd5b809150509250925092565b5f6020828403121561182f575f80fd5b5035919050565b634e487b7160e01b5f52604160045260245ffd5b5f6020828403121561185a575f80fd5b813567ffffffffffffffff80821115611871575f80fd5b818401915084601f830112611884575f80fd5b81358181111561189657611896611836565b604051601f8201601f19908116603f011681019083821181831017156118be576118be611836565b816040528281528760208487010111156118d6575f80fd5b826020860160208301375f928101602001929092525095945050505050565b5f805f805f60608688031215611909575f80fd5b853567ffffffffffffffff80821115611920575f80fd5b61192c89838a01611655565b90975095506020880135915080821115611944575f80fd5b5061195188828901611655565b96999598509660400135949350505050565b5f805f60408486031215611975575f80fd5b833567ffffffffffffffff81111561198b575f80fd5b61199786828701611655565b90945092506119aa905060208501611577565b90509250925092565b6020808252600990820152682737ba1030b236b4b760b91b604082015260600190565b634e487b7160e01b5f52603260045260245ffd5b600181811c908216806119fe57607f821691505b602082108103611a1c57634e487b7160e01b5f52602260045260245ffd5b50919050565b634e487b7160e01b5f52601160045260245ffd5b5f60018201611a4757611a47611a22565b5060010190565b818382375f9101908152919050565b6020808252600f908201526e2737ba1030b3b2b73a1037bbb732b960891b604082015260600190565b81835281816020850137505f828201602090810191909152601f909101601f19169091010190565b604081525f611ac1604083018587611a86565b9050826020830152949350505050565b80820281158282048414176106e6576106e6611a22565b5f82611b0257634e487b7160e01b5f52601260045260245ffd5b500490565b808201808211156106e6576106e6611a22565b606081525f611b2d606083018688611a86565b6020830194909452506040015292915050565b601f821115611b89575f81815260208120601f850160051c81016020861015611b665750805b601f850160051c820191505b81811015611b8557828155600101611b72565b5050505b505050565b815167ffffffffffffffff811115611ba857611ba8611836565b611bbc81611bb684546119ea565b84611b40565b602080601f831160018114611bef575f8415611bd85750858301515b5f19600386901b1c1916600185901b178555611b85565b5f85815260208120601f198616915b82811015611c1d57888601518255948401946001909101908401611bfe565b5085821015611c3a57878501515f19600388901b60f8161c191681555b5050505050600190811b01905550565b606081525f611c5d606083018789611a86565b8281036020840152611c70818688611a86565b9150508260408301529695505050505050565b602081525f611c96602083018486611a86565b949350505050565b818103818111156106e6576106e6611a22565b634e487b7160e01b5f52603160045260245ffdfea264697066735822122062a40e14e82514a2aa41e628ec51e05ae5a22d206b6ebc2e02942771c7ae047964736f6c63430008140033","linkReferences":{}},"methodIdentifiers":{"MAX_FEE()":"bc063e1a","MAX_NAME_LENGTH()":"86074985","MIN_NAME_LENGTH()":"50cfeddd","addAuthorizedCaller(address)":"13a155ea","admin()":"f851a440","authorizedCallers(address)":"536fff6c","getAgentAtIndex(uint256)":"7bcac9a5","getAgentsByOwner(address)":"1ab6f888","isNameAvailable(string)":"8cf44d21","recordYield(string,uint256)":"980c845f","registerAgent(string,string,uint256)":"da6b03bc","removeAuthorizedCaller(address)":"b7aa0231","resolveAgent(string)":"39299d99","setAgentActive(string,bool)":"47edb673","totalAgents()":"c5053712","transferAdmin(address)":"75829def","transferAgentOwnership(string,address)":"fad338ae","updateFee(string,uint256)":"458cdaee","validAgentIds(string)":"a0aa0e8d"},"id":0}