{"abi":[{"type":"constructor","inputs":[{"name":"_registry","type":"address","internalType":"address"}],"stateMutability":"nonpayable"},{"type":"function","name":"USDC","inputs":[],"outputs":[{"name":"","type":"address","internalType":"address"}],"stateMutability":"view"},{"type":"function","name":"agentTotalDeposits","inputs":[{"name":"","type":"bytes32","internalType":"bytes32"}],"outputs":[{"name":"","type":"uint256","internalType":"uint256"}],"stateMutability":"view"},{"type":"function","name":"claimFees","inputs":[],"outputs":[],"stateMutability":"nonpayable"},{"type":"function","name":"depositViaAgent","inputs":[{"name":"agentName","type":"string","internalType":"string"},{"name":"amount","type":"uint256","internalType":"uint256"}],"outputs":[],"stateMutability":"nonpayable"},{"type":"function","name":"deposits","inputs":[{"name":"","type":"address","internalType":"address"},{"name":"","type":"bytes32","internalType":"bytes32"}],"outputs":[{"name":"principal","type":"uint256","internalType":"uint256"},{"name":"depositTime","type":"uint256","internalType":"uint256"},{"name":"lastHarvestTime","type":"uint256","internalType":"uint256"},{"name":"totalYieldClaimed","type":"uint256","internalType":"uint256"},{"name":"totalFeesPaid","type":"uint256","internalType":"uint256"}],"stateMutability":"view"},{"type":"function","name":"getAgentDeposits","inputs":[{"name":"agentName","type":"string","internalType":"string"}],"outputs":[{"name":"","type":"uint256","internalType":"uint256"}],"stateMutability":"view"},{"type":"function","name":"getPendingFees","inputs":[{"name":"owner","type":"address","internalType":"address"}],"outputs":[{"name":"","type":"uint256","internalType":"uint256"}],"stateMutability":"view"},{"type":"function","name":"getUserDeposit","inputs":[{"name":"user","type":"address","internalType":"address"},{"name":"agentName","type":"string","internalType":"string"}],"outputs":[{"name":"","type":"tuple","internalType":"struct AgentVault.UserDeposit","components":[{"name":"principal","type":"uint256","internalType":"uint256"},{"name":"depositTime","type":"uint256","internalType":"uint256"},{"name":"lastHarvestTime","type":"uint256","internalType":"uint256"},{"name":"totalYieldClaimed","type":"uint256","internalType":"uint256"},{"name":"totalFeesPaid","type":"uint256","internalType":"uint256"}]}],"stateMutability":"view"},{"type":"function","name":"harvestYield","inputs":[{"name":"agentName","type":"string","internalType":"string"},{"name":"yieldAmount","type":"uint256","internalType":"uint256"}],"outputs":[],"stateMutability":"nonpayable"},{"type":"function","name":"pendingFees","inputs":[{"name":"","type":"address","internalType":"address"}],"outputs":[{"name":"","type":"uint256","internalType":"uint256"}],"stateMutability":"view"},{"type":"function","name":"registry","inputs":[],"outputs":[{"name":"","type":"address","internalType":"contract IAgentRegistry"}],"stateMutability":"view"},{"type":"function","name":"withdraw","inputs":[{"name":"agentName","type":"string","internalType":"string"},{"name":"amount","type":"uint256","internalType":"uint256"}],"outputs":[],"stateMutability":"nonpayable"},{"type":"event","name":"DepositViaAgent","inputs":[{"name":"user","type":"address","indexed":true,"internalType":"address"},{"name":"agentName","type":"string","indexed":false,"internalType":"string"},{"name":"amount","type":"uint256","indexed":false,"internalType":"uint256"},{"name":"timestamp","type":"uint256","indexed":false,"internalType":"uint256"}],"anonymous":false},{"type":"event","name":"FeesClaimed","inputs":[{"name":"owner","type":"address","indexed":true,"internalType":"address"},{"name":"amount","type":"uint256","indexed":false,"internalType":"uint256"}],"anonymous":false},{"type":"event","name":"Withdrawal","inputs":[{"name":"user","type":"address","indexed":true,"internalType":"address"},{"name":"agentName","type":"string","indexed":false,"internalType":"string"},{"name":"amount","type":"uint256","indexed":false,"internalType":"uint256"}],"anonymous":false},{"type":"event","name":"YieldHarvested","inputs":[{"name":"user","type":"address","indexed":true,"internalType":"address"},{"name":"agentName","type":"string","indexed":false,"internalType":"string"},{"name":"grossYield","type":"uint256","indexed":false,"internalType":"uint256"},{"name":"fee","type":"uint256","indexed":false,"internalType":"uint256"},{"name":"netYield","type":"uint256","indexed":false,"internalType":"uint256"}],"anonymous":false}],"bytecode":{"object":"0x60a060405234801561000f575f80fd5b506040516112b23803806112b283398101604081905261002e9161003f565b6001600160a01b031660805261006c565b5f6020828403121561004f575f80fd5b81516001600160a01b0381168114610065575f80fd5b9392505050565b6080516112196100995f395f818161019f015281816104e7015281816107e8015261091201526112195ff3fe608060405234801561000f575f80fd5b50600436106100b1575f3560e01c806389a302711161006e57806389a30271146101d9578063a4bf34ba146101f4578063cc0fdaca1461021c578063d294f0931461022f578063f255458414610237578063f7a5a8a51461028b575f80fd5b80632260a9c2146100b557806325d2a3f31461012657806330b39a62146101535780633c63151714610168578063743e64661461017b5780637b1039991461019a575b5f80fd5b6100f96100c3366004610d26565b5f602081815292815260408082209093529081522080546001820154600283015460038401546004909401549293919290919085565b604080519586526020860194909452928401919091526060830152608082015260a0015b60405180910390f35b610145610134366004610d50565b60026020525f908152604090205481565b60405190815260200161011d565b610166610161366004610db7565b61029e565b005b610166610176366004610db7565b61048a565b610145610189366004610dff565b60016020525f908152604090205481565b6101c17f000000000000000000000000000000000000000000000000000000000000000081565b6040516001600160a01b03909116815260200161011d565b6101c173af88d065e77c8cc2239327c5edb3a432268e583181565b610145610202366004610d50565b6001600160a01b03165f9081526002602052604090205490565b61016661022a366004610db7565b610758565b610166610abc565b61024a610245366004610e16565b610c37565b60405161011d91905f60a082019050825182526020830151602083015260408301516040830152606083015160608301526080830151608083015292915050565b610145610299366004610e67565b610cdd565b5f83836040516102af929190610ea6565b6040805191829003909120335f90815260208181528382208383529052919091208054919250908311156103215760405162461bcd60e51b8152602060048201526014602482015273496e73756666696369656e742062616c616e636560601b60448201526064015b60405180910390fd5b82815f015f8282546103339190610ec9565b90915550505f8281526001602052604081208054859290610355908490610ec9565b9091555050604051336024820152604481018490525f9073af88d065e77c8cc2239327c5edb3a432268e58319060640160408051601f198184030181529181526020820180516001600160e01b031663a9059cbb60e01b179052516103ba9190610efe565b5f604051808303815f865af19150503d805f81146103f3576040519150601f19603f3d011682016040523d82523d5f602084013e6103f8565b606091505b505090508061043d5760405162461bcd60e51b815260206004820152601160248201527015da5d1a191c985dd85b0819985a5b1959607a1b6044820152606401610318565b336001600160a01b03167f323cefffcafc4dae937c4a852e3866ecde9e8c1d723e1187230b982201040fb687878760405161047a93929190610f41565b60405180910390a2505050505050565b5f81116104ce5760405162461bcd60e51b81526020600482015260126024820152710416d6f756e74206d757374206265203e20360741b6044820152606401610318565b6040516339299d9960e01b81525f906001600160a01b037f000000000000000000000000000000000000000000000000000000000000000016906339299d999061051e9087908790600401610f64565b5f60405180830381865afa158015610538573d5f803e3d5ffd5b505050506040513d5f823e601f3d908101601f1916820160405261055f9190810190611061565b90508060e001516105a55760405162461bcd60e51b815260206004820152601060248201526f4167656e74206e6f742061637469766560801b6044820152606401610318565b5f84846040516105b6929190610ea6565b6040519081900381203360248301523060448301526064820185905291505f9073af88d065e77c8cc2239327c5edb3a432268e58319060840160408051601f198184030181529181526020820180516001600160e01b03166323b872dd60e01b179052516106249190610efe565b5f604051808303815f865af19150503d805f811461065d576040519150601f19603f3d011682016040523d82523d5f602084013e610662565b606091505b50509050806106a55760405162461bcd60e51b815260206004820152600f60248201526e151c985b9cd9995c8819985a5b1959608a1b6044820152606401610318565b335f9081526020818152604080832085845290915281208054909186918391906106d0908490611144565b909155505060018101545f036106e7574260018201555b4260028201555f838152600160205260408120805487929061070a908490611144565b909155505060405133907f5c454824b92cb806ae3f1f6450e0369db4108627e334a36c681754592619bcb290610747908a908a908a904290611157565b60405180910390a250505050505050565b5f8383604051610769929190610ea6565b6040805191829003909120335f90815260208181528382208383529052919091208054919250906107cf5760405162461bcd60e51b815260206004820152601060248201526f139bc819195c1bdcda5d08199bdd5b9960821b6044820152606401610318565b6040516339299d9960e01b81525f906001600160a01b037f000000000000000000000000000000000000000000000000000000000000000016906339299d999061081f9089908990600401610f64565b5f60405180830381865afa158015610839573d5f803e3d5ffd5b505050506040513d5f823e601f3d908101601f191682016040526108609190810190611061565b90505f612710826060015186610876919061117d565b6108809190611194565b90505f61088d8287610ec9565b905080846003015f8282546108a29190611144565b9250508190555081846004015f8282546108bc9190611144565b9091555050426002808601919091556040808501516001600160a01b03165f908152602092909252812080548492906108f6908490611144565b909155505060405163980c845f60e01b81526001600160a01b037f0000000000000000000000000000000000000000000000000000000000000000169063980c845f9061094b908b908b908b90600401610f41565b5f604051808303815f87803b158015610962575f80fd5b505af1158015610974573d5f803e3d5ffd5b505050505f811115610a6957604051336024820152604481018290525f9073af88d065e77c8cc2239327c5edb3a432268e58319060640160408051601f198184030181529181526020820180516001600160e01b031663a9059cbb60e01b179052516109e09190610efe565b5f604051808303815f865af19150503d805f8114610a19576040519150601f19603f3d011682016040523d82523d5f602084013e610a1e565b606091505b5050905080610a675760405162461bcd60e51b8152602060048201526015602482015274165a595b19081d1c985b9cd9995c8819985a5b1959605a1b6044820152606401610318565b505b336001600160a01b03167fcf0ea6f2699a683850d5e48770d6d30d0412c5f98f3e1ad2f3bb1d4d423348828989898686604051610aaa9594939291906111b3565b60405180910390a25050505050505050565b335f9081526002602052604090205480610b0b5760405162461bcd60e51b815260206004820152601060248201526f4e6f206665657320746f20636c61696d60801b6044820152606401610318565b335f81815260026020526040808220829055516024810192909252604482018390529073af88d065e77c8cc2239327c5edb3a432268e58319060640160408051601f198184030181529181526020820180516001600160e01b031663a9059cbb60e01b17905251610b7c9190610efe565b5f604051808303815f865af19150503d805f8114610bb5576040519150601f19603f3d011682016040523d82523d5f602084013e610bba565b606091505b5050905080610bfe5760405162461bcd60e51b815260206004820152601060248201526f1199594818db185a5b4819985a5b195960821b6044820152606401610318565b60405182815233907f9493e5bbe4e8e0ac67284469a2d677403d0378a85a59e341d3abc433d0d9a2099060200160405180910390a25050565b610c646040518060a001604052805f81526020015f81526020015f81526020015f81526020015f81525090565b5f8383604051610c75929190610ea6565b604080519182900382206001600160a01b0388165f908152602081815283822092825291825282902060a08401835280548452600181015491840191909152600281015491830191909152600381015460608301526004015460808201529150509392505050565b5f808383604051610cef929190610ea6565b60408051918290039091205f908152600160205220549150505b92915050565b6001600160a01b0381168114610d23575f80fd5b50565b5f8060408385031215610d37575f80fd5b8235610d4281610d0f565b946020939093013593505050565b5f60208284031215610d60575f80fd5b8135610d6b81610d0f565b9392505050565b5f8083601f840112610d82575f80fd5b50813567ffffffffffffffff811115610d99575f80fd5b602083019150836020828501011115610db0575f80fd5b9250929050565b5f805f60408486031215610dc9575f80fd5b833567ffffffffffffffff811115610ddf575f80fd5b610deb86828701610d72565b909790965060209590950135949350505050565b5f60208284031215610e0f575f80fd5b5035919050565b5f805f60408486031215610e28575f80fd5b8335610e3381610d0f565b9250602084013567ffffffffffffffff811115610e4e575f80fd5b610e5a86828701610d72565b9497909650939450505050565b5f8060208385031215610e78575f80fd5b823567ffffffffffffffff811115610e8e575f80fd5b610e9a85828601610d72565b90969095509350505050565b818382375f9101908152919050565b634e487b7160e01b5f52601160045260245ffd5b81810381811115610d0957610d09610eb5565b5f5b83811015610ef6578181015183820152602001610ede565b50505f910152565b5f8251610f0f818460208701610edc565b9190910192915050565b81835281816020850137505f828201602090810191909152601f909101601f19169091010190565b604081525f610f54604083018587610f19565b9050826020830152949350505050565b602081525f610f77602083018486610f19565b949350505050565b634e487b7160e01b5f52604160045260245ffd5b604051610120810167ffffffffffffffff81118282101715610fb757610fb7610f7f565b60405290565b5f82601f830112610fcc575f80fd5b815167ffffffffffffffff80821115610fe757610fe7610f7f565b604051601f8301601f19908116603f0116810190828211818310171561100f5761100f610f7f565b81604052838152866020858801011115611027575f80fd5b611038846020830160208901610edc565b9695505050505050565b805161104d81610d0f565b919050565b8051801515811461104d575f80fd5b5f60208284031215611071575f80fd5b815167ffffffffffffffff80821115611088575f80fd5b90830190610120828603121561109c575f80fd5b6110a4610f93565b8251828111156110b2575f80fd5b6110be87828601610fbd565b8252506020830151828111156110d2575f80fd5b6110de87828601610fbd565b6020830152506110f060408401611042565b6040820152606083015160608201526080830151608082015260a083015160a082015260c083015160c082015261112960e08401611052565b60e08201526101009283015192810192909252509392505050565b80820180821115610d0957610d09610eb5565b606081525f61116a606083018688610f19565b6020830194909452506040015292915050565b8082028115828204841417610d0957610d09610eb5565b5f826111ae57634e487b7160e01b5f52601260045260245ffd5b500490565b608081525f6111c6608083018789610f19565b60208301959095525060408101929092526060909101529291505056fea2646970667358221220eef0f4c92fff9c62eed83a30c1ec6d15c15456c9fc3b63d3cc0f4e20b923451664736f6c63430008140033","linkReferences":{}},"methodIdentifiers":{"USDC()":"89a30271","agentTotalDeposits(bytes32)":"743e6466","claimFees()":"d294f093","depositViaAgent(string,uint256)":"3c631517","deposits(address,bytes32)":"2260a9c2","getAgentDeposits(string)":"f7a5a8a5","getPendingFees(address)":"a4bf34ba","getUserDeposit(address,string)":"f2554584","harvestYield(string,uint256)":"cc0fdaca","pendingFees(address)":"25d2a3f3","registry()":"7b103999","withdraw(string,uint256)":"30b39a62"},"id":1}